:100000000C942A001895000018950000189500001F
:10001000189500001895000018950000189500002C
:10002000189500001895000018950000189500001C
:10003000189500001895000018950000189500000C
:1000400018950000189500001895000018950000FC
:10005000189500008FE58DBFC8E3E0E24E2E84E0E6
:100060008EBFD4E0F4E05F2EA89584B7082E877F7A
:1000700084BF88E1992781BD91BDEEEFF3E0A0E652
:10008000B0E088278D933197E9F70E94FF0066243E
:1000900083E886B980E487B98CE00E944D01379AE5
:1000A00007B1007E07B90E948E01A0E6B0E08D93F3
:1000B0009C93A0E6B0E00D911C9142E050E00E94BC
:1000C000C800A0E6B0E04D935C93E6EEF0E080E47B
:1000D0000E944D0158E0C895802D0E94470131963D
:1000E0005A95C9F704C00E0A0E2020202020EAE00D
:1000F000F1E088E40E944D0158E0C895802D0E94EF
:10010000470131965A95C9F704C00E11111010110C
:10011000110E0E94F100E8EFF3E00E94EA00A8E06F
:10012000B4E0E0E6F0E00E94A9010E94E20080E075
:100130000E94470181E00E944701E3E0F0E00E9455
:10014000F6000C945000F894FFCF00FC10D00895F6
:1001500003D01ED001F8F9CF0024E89457FF02C065
:1001600009D0689400F80BD010F80124089502D04B
:1001700009D00895509540954F5F5F4F0895E894DA
:1001800017FF0895009510950F5F1F4F689408950D
:10019000352F242FE894452B11F468940895512F9E
:1001A000402F0027112780E1440F551F001F111F0A
:1001B000021B130B416018F4020F131F4E7F8A9528
:1001C00099F70895A8E0B4E08D91882311F05FD0ED
:1001D000FBCF08950E949701802D11F058D0FACFDF
:1001E000089581E05AD008D080E857C088EE93E0A7
:1001F00081D03197D9F7089583E099277BC08AEFA2
:1002000090E00E947A01BF9ABE9ABD9ABC9ABA9AAF
:10021000B89AC09885E090E00E947A01C298C79889
:10022000C698C59AC49AC29AEF93FF93E5E1F0E0AD
:100230000E946E01FF91EF91C29859D0C29AEF933C
:10024000FF93E5E1F0E00E946E01FF91EF91C2980B
:100250004ED0C29AEF93FF93E5E1F0E00E946E0169
:10026000FF91EF91C29843D0C498C29AEF93FF9345
:10027000E5E1F0E00E946E01FF91EF91C29837D066
:1002800088E20BD08EE009D086E007D00895C09AAE
:10029000829505D004D02BD00895C098F9CF8595CC
:1002A00010F4C49A01C0C498859510F4C59A01C091
:1002B000C598859510F4C69A01C0C698859510F426
:1002C000C79A01C0C798C29AEF93FF93E5E1F0E0A7
:1002D0000E946E01FF91EF91C29808953197F1F756
:1002E0000895689462F80895E89462F8089581E0AA
:1002F00090E000C0EF93FF93EE27E82BE92B31F05D
:10030000EAEFF0E03197F1F70197D1F7FF91EF9124
:10031000089501911191219130810895369A36996D
:10032000FECF369A3699FECF84B195B10895C8951F
:10033000319600200895000F111F221F331F0895CA
:1003400000951095209530950F5F1F4F2F4F3F4F11
:100350000895019110810CC00E9489010BC0019188
:10036000108117FF05C03FEF2FEF04C00081112758
:100370002227332737FF03C0E3DF8DE28D93CF922F
:10038000DF92EF92AA24BB24CC24DD24EE2440E2A9
:10039000EAE0FF2755E093E38081890F87FD9F7096
:1003A00083FD907F891B81935A95A9F7C4DFAA1C0E
:1003B000BB1CCC1CDD1CEE1C4A9551F7E894EFE009
:1003C000FF2782910CD0EB30E0F71EF068948A2D65
:1003D0000AD088278D93EF90DF90CF900895982FC3
:1003E000829501D0892F8F70805D26F0803309F4CB
:1003F000089568948D93089554656D703A200000B7
:00000001FF
