:100000000C942A001895000018950000189500001F
:10001000189500001895000018950000189500002C
:10002000189500001895000018950000189500001C
:10003000189500001895000018950000189500000C
:1000400018950000189500001895000018950000FC
:10005000189500008FE58DBFC8E3E0E24E2E84E0E6
:100060008EBFD4E0F4E05F2EA89584B7082E877F7A
:1000700084BF88E1992781BD91BDEEEFF3E0A0E652
:10008000B0E088278D933197E9F766247FEF77BB3F
:100090008898909A80E080936200709163007F77E7
:1000A000709363008FEF9FEFA0E6B0E08D939C9379
:1000B00080990C946000A2E6B0E08C918F5F8C93E5
:1000C00000916200023011F00C94690080E080938E
:1000D000620000916200003011F00C94BF00A3E6B2
:1000E000B0E08C9187FB16F40C949B00A0E6B0E086
:1000F0000E94F000A0E6B0E04D915C9106E010E0B7
:10010000041715070CF402C00C948B007091630067
:10011000706870936300E6EDF1E0A0E6B0E08D91C9
:100120009C91A8E3B0E00E94260184EF91E00E9438
:1001300007010C94BD00A0E6B0E00E94F700A0E625
:10014000B0E00D911C91013050E015070CF402C095
:100150000C94AF00709163007F7770936300E6EDBD
:10016000F1E0A0E6B0E08D919C91A8E3B0E00E94A0
:10017000260184EF91E00E9407010C94E700013012
:1001800011F00C94E700A0E6B0E00E94F000A0E6B9
:10019000B0E04D915C9101E010E0041715070CF4FC
:1001A00002C00C94D90080E090E0A0E6B0E08D930E
:1001B0009C93EEEDF1E0A0E6B0E08D919C91A8E378
:1001C000B0E00E94260184EF91E00E9407010C94A8
:1001D0005800F894FFCF010204081020408055AA6F
:1001E000ED91FC91EF5FFF4FFC93EE930895ED913D
:1001F000FC91E150F040FC93EE9308953197F1F7B4
:100200000895689462F80895E89462F80895EF9369
:10021000FF93EE27E82BE92B31F0EAEFF0E031977E
:10022000F1F70197D1F7FF91EF910895C8953196B5
:100230000020089591E005C092E003C094E001C061
:1002400098E0F4DF0D929A95E1F70895E80FF91F11
:02025000F1CFEC
:00000001FF
