:100000000C942A001895000018950000189500001F
:10001000189500001895000018950000189500002C
:10002000189500001895000018950000189500001C
:10003000189500001895000018950000189500000C
:1000400018950000189500001895000018950000FC
:10005000189500008FE58DBFC8E3E0E24E2E84E0E6
:100060008EBFD4E0F4E05F2EA89584B7082E877F7A
:1000700084BF88E1992781BD91BDEEEFF3E0A0E652
:10008000B0E088278D933197E9F70E9490006624AD
:100090000E947B008FE711E00E948A00ECE3F2E00F
:1000A0000E94740084EF91E00E940B018FEB11E03D
:1000B0000E948A00E2E4F2E00E94740084EF91E082
:1000C0000E940B018CE10E94DE0088EE93E00E940A
:1000D0000B0188E10E94DE0088EE93E00E940B0194
:1000E0000C946200F894FFCF0E941A01802D11F049
:1000F0005FD0FACF089581E061D00FD080E85EC074
:100100008FE7213039F08FEB223021F08FE8233058
:1001100009F08FEC810F0C94DE0083E099277BC0FF
:100120008AEF90E00E940B01D79AD69AD59AD49A7A
:10013000D29AD09AD89885E090E00E940B01DA9884
:10014000DF98DE98DD9ADC9ADA9AEF93FF93E5E187
:10015000F0E00E94FF00FF91EF91DA9859D0DA9A0F
:10016000EF93FF93E5E1F0E00E94FF00FF91EF9134
:10017000DA984ED0DA9AEF93FF93E5E1F0E00E942F
:10018000FF00FF91EF91DA9843D0DC98DA9AEF9371
:10019000FF93E5E1F0E00E94FF00FF91EF91DA9814
:1001A00037D088E20BD08EE009D086E007D00895E2
:1001B000D89A829505D004D02BD00895D898F9CF3D
:1001C000859510F4DC9A01C0DC98859510F4DD9AD1
:1001D00001C0DD98859510F4DE9A01C0DE98859502
:1001E00010F4DF9A01C0DF98DA9AEF93FF93E5E10C
:1001F000F0E00E94FF00FF91EF91DA9808953197A7
:10020000F1F70895689462F80895E89462F8089503
:1002100081E090E000C0EF93FF93EE27E82BE92BFD
:1002200031F0EAEFF0E03197F1F70197D1F7FF9164
:10023000EF910895C89531960020089548656C6C3B
:080240006F00576F726C64003F
:00000001FF
