:100000000C942A001895000018950000189500001F
:10001000189500001895000018950000189500002C
:10002000189500001895000018950000189500001C
:10003000189500001895000018950000189500000C
:1000400018950000189500001895000018950000FC
:10005000189500008FE58DBFC8E3E0E24E2E84E0E6
:100060008EBFD4E0F4E05F2EA89584B7082E877F7A
:1000700084BF88E1992781BD91BDEEEFF3E0A0E652
:10008000B0E088278D933197E9F766247FEF77BB3F
:100090007FEF71BB80E080936000ECEEF0E0A0E6C3
:1000A000B0E08C919927A1E6B0E00E94AC00A1E6F7
:1000B000B0E08C9188BBA1E6B0E011968C9182BB38
:1000C000A0E6B0E08C918F5F8C93009160000830C7
:1000D00011F00C946E0080E080936000E1E0F0E0AD
:1000E0000E947E000C944D00F894FFCFFF007788AB
:1000F0008C88FB88FF88CF88F300F38888EE93E034
:100100000CD03197D9F708953197F1F70895689495
:1001100062F80895E89462F80895EF93FF93EE274C
:10012000E82BE92B31F0EAEFF0E03197F1F7019796
:10013000D1F7FF91EF910895C89531960020089569
:1001400091E005C092E003C094E001C098E0F4DFC4
:100150000D929A95E1F70895880F991FE80FF91FFE
:02016000F1CFDD
:00000001FF
