:100000000C942A001895000018950000189500001F
:10001000189500001895000018950000189500002C
:10002000189500001895000018950000189500001C
:10003000189500001895000018950000189500000C
:1000400018950000189500001895000018950000FC
:10005000189500008FE58DBFC8E3E0E24E2E84E0E6
:100060008EBFD4E0F4E05F2EA89584B7082E877F7A
:1000700084BF88E1992781BD91BDEEEFF3E0A0E652
:10008000B0E088278D933197E9F76624B89AC09835
:10009000E1E0F0E00E945500C09AE1E0F0E00E944B
:1000A00055000C944700F894FFCF88EE93E00CD0F5
:1000B0003197D9F708953197F1F70895689462F868
:1000C0000895E89462F80895EF93FF93EE27E82BE4
:1000D000E92B31F0EAEFF0E03197F1F70197D1F732
:0600E000FF91EF9108956D
:00000001FF
